S00B00006F75742E73726563C1
S11300000C9496000C94AA000C94AA000C94AA00D8
S11300100C94AA000C94AA000C94AA000C94AA00B4
S11300200C94AA000C94AA000C94AA000C94AA00A4
S11300300C94AA000C94AA000C94AA000C94AA0094
S11300400C94AA000C94AA000C94AA000C94AA0084
S11300500C94AA000C94AA000C94AA000C94AA0074
S11300600C94AA000C94AA000C94AA000C94AA0064
S11300700C94AA000C94AA000C94AA000C94AA0054
S11300800C940F060C94AA000C94AA000C94AA00D9
S11300900C94AA000C94AA000C94AA000C94AA0034
S11300A00C94AA000C94AA000C94AA000C94AA0024
S11300B00C94AA000C94AA000C94AA000C94AA0014
S11300C00C94AA000C94AA000C94AA000C94AA0004
S11300D00C94AA000C94AA000C94AA000C94AA00F4
S11300E00C94AA000C04B703E30354040C04E603C1
S11300F05A046104B204E4040C94B2040C94B703EB
S11301000C946E010C94E4040C9454040C94E603D3
S11301100C94E3030C9461040C945A040C94E806C4
S11301200C940C040C942E070C94560111241FBE3D
S1130130CFEFD1E2DEBFCDBF00E00CBF15E1A0E000
S1130140B2E001C01D92A436B107E1F70E94F607A0
S11301500C9428080C9400000F921F922F923F9247
S11301604F925F926F927F928F929F92AF92BF92C3
S1130170CF92DF92EF92FF920F931F932F933F93AF
S11301804F935F936F937F938F939F93AF93BF939B
S1130190CF93DF93EF93FF93FCB7FF93FFB7FF93E6
S11301A0EDB7FEB7E0936215F0936315E091601527
S11301B0F0916115EDBFFEBFFF91FFBFFF91FCBF42
S11301C0FF91EF91DF91CF91BF91AF919F918F916B
S11301D07F916F915F914F913F912F911F910F915B
S11301E0FF90EF90DF90CF90BF90AF909F908F9053
S11301F07F906F905F904F903F902F901F900F9043
S113020018950F921F922F923F924F925F926F9286
S11302107F928F929F92AF92BF92CF92DF92EF9292
S1130220FF920F931F932F933F934F935F936F937B
S11302307F938F939F93AF93BF93CF93DF93EF936A
S1130240FF93FCB7FF93FFB7FF93EDB7FEB7E093BF
S11302506015F0936115E0916215F0916315EDBF9F
S1130260FEBFFF91FFBFFF91FCBFFF91EF91DF91B4
S1130270CF91BF91AF919F918F917F916F915F913A
S11302804F913F912F911F910F91FF90EF90DF902D
S1130290CF90BF90AF909F908F907F906F905F9022
S11302A04F903F902F901F900F900895FFCFFC0127
S11302B0DB01AA5EBE4F1D921C9280819181892B25
S11302C019F47183608307C0A281B381AA5EBE4F13
S11302D011967C936E937383628308958091D40303
S11302E09091D503892BB1F0F8948091D203909129
S11302F0D30301979093D3038093D203E091D60361
S1130300F091D703EE5EFE4F83E090E0918380830B
S11303100C940101089520910402309105022115E5
S1130320310549F0FC01E65FFE4F0190F081E02DBC
S113033040E050E013C09093050280930402909330
S113034007028093060227C0D901AA5EBE4F6D91B1
S11303507C916115710581F1A9019B01D901A65F09
S1130360BE4F6D917C916E177F0770F34115510557
S113037029F4909305028093040218C021153105D5
S113038081F49A019093070280930602F901EA5ED0
S1130390FE4F91838083FC01EA5EFE4F118210823E
S11303A00895FA01EA5EFE4F91838083FC01EA5EC0
S11303B0FE4F3183208308952115310519F7D9CFD4
S11303C020E031E0FC01A901119241505040E1F7D5
S11303D0FC01E150FF4F2EE631E02083FC01E250A6
S11303E0FF4F3083FC01E350FF4F10822091220322
S11303F030912303FC01E450FF4F2083209122031A
S113040030912303FC01E550FF4F3083FC01E6509B
S1130410FF4F1082FC01F3959C0129523F4F318319
S113042020832091220330912303FC01E85FFE4FD7
S113043031832083FC01EE5EFE4F11821082FC01A9
S1130440ED5FFE4F22E030E03183208320912103D1
S1130450FC01E95FFE4F208320912103223091F0BB
S113046018F4213051F00895233019F0243081F12B
S11304700895BC018CE092E003C0BC0188E092E0E6
S11304800C94570120912A0330912B03FC01E05F67
S1130490FE4F318320832091260330912703FC01F2
S11304A0E45FFE4F318320832091240330912503A0
S11304B0FC01E65FFE4F31832083209128033091B5
S11304C02903FC01E25FFE4F318320830C948B01EE
S11304D090935F1580935E150895CF93DF938230D8
S11304E09105B9F140F4009781F0019709F098C0A3
S11304F0C7E0D0E01DC08330910509F447C00497DC
S113050009F08EC0C6E0D0E06EC0C6E0D0E087E05F
S113051090E00E94D0062FEF80E792E021508040C7
S11305209040E1F700C000002197209781F778C040
S113053087E090E00E94D0062FEF83ED90E32150F6
S113054080409040E1F700C000002197209781F798
S113055067C0C6E0D0E087E090E00E94D0068FE359
S11305609CE90197F1F700C0000087E090E00E9449
S1130570D0069FEF29E688E1915020408040E1F7C2
S113058000C000002197209731F74AC0C6E0D0E0B0
S113059087E090E00E94D0069FEF20E782E0915030
S11305A020408040E1F700C0000087E090E00E9416
S11305B0D0069FEF20E782E0915020408040E1F791
S11305C000C0000087E090E00E94D0069FEF23EC7B
S11305D089E0915020408040E1F700C0000021975D
S11305E02097B1F61DC087E090E00E94D0069FEFEF
S11305F020E782E0915020408040E1F700C00000F5
S113060087E090E00E94D0069FEF23ED80E39150B5
S113061020408040E1F700C000002197209719F79F
S1130620DF91CF9108958091D2039091D3034097A5
S113063021F483E090E00C946D02EBEDF4E020E013
S113064030E080819181892B39F02F5F3F4FE85E44
S1130650FE4F20313105A9F78091D2039091D30345
S113066001969093D3038093D20348E151E0249FF1
S1130670C001259F900D349F900D112488529C4FEA
S11306800C94E00180E090E04AE0489FF001499F2B
S1130690F00D1124EE5CFC4F208131810196232B57
S11306A069F49183808313821282158214821782E3
S11306B0168211861086808191810895803191057A
S11306C021F784E090E00E946D0280E090E00895BC
S11306D06F927F929F92AF92BF92CF92DF92EF92EE
S11306E0FF920F931F93CF93DF931F921F92CDB767
S11306F0DEB78091D4039091D503892B09F099C179
S11307008091D2039091D303892B09F492C1F89478
S113071081E090E09093D5038093D40310929000ED
S11307201092910080919100886080939100809153
S1130730910084608093910081E792E09093990006
S11307408093980080917100826080937100109270
S11307509500109294000E9480078AE0982E02E08F
S113076010E093E0E92EF12CCC24C394D12C809199
S1130770D6039091D703FC01EE5EFE4F11821082E6
S1130780FC01F395808191819093611580936015AC
S11307900E94AC006091D6037091D70380916015DC
S11307A090916115FB01F39591838083FB01EE5ECB
S11307B0FE4F0190F081E02DEA30F105C0F6EE58CD
S11307C0FF4F0C940E080E941303D1CFFB01E95F85
S11307D0FE4F8081823049F0833009F058C0FB011C
S11307E0ED5FFE4FD182C0829FC0FB01ED5FFE4FE3
S11307F011830083FB01E25FFE4F808191810197A9
S11308009183808380819181892B09F08DC080E060
S113081090E00E946D0288C0FB01E95FFE4F808179
S1130820833041F4FB01ED5FFE4F118300838CE0C4
S113083092E037C08081823049F584E092E0698398
S11308407A830E94510769817A81FB01ED5FFE4F33
S113085011830083FB01E65FFE4F20813181DB01C0
S1130860A05FBE4F8D919C91820F931F91838083D3
S1130870FB01E45FFE4F80819181FB01E25FFE4F4B
S113088091838083CB010E948B014EC08081813093
S113089009F04AC0FB01ED5FFE4F1183008388E03D
S11308A092E00E94570140C0FB01ED5FFE4F1182B0
S11308B010823AC00E944203909303028093020282
S11308C056CF8091100290911102989E3001999E0A
S11308D0700C1124C3018E5C9C4F3C01DC01149606
S11308E08D919C911597892B11F512968D919C9160
S11308F01397892B21F082E090E00E946D02809191
S1130900D6039091D703F30193838283FC01ED5FB7
S1130910FE4FF182E0828091180290911902D30176
S113092019969C938E9318970E94800720CF5301A9
S1130930B4E0AB0EB11CC5010E945107009709F445
S113094072C0FC01ED5FFE4F1183008320911802F9
S113095030911902FC01EC5EFE4F318320830E942A
S11309606107E9CF8091100290911102989E500185
S1130970999EB00C1124C5018E5C9C4F5C01DC0176
S113098012968D919C911397FB01EC5EFE4F00979C
S113099059F4DB01AD5FBE4F1196FC92EE921182C9
S11309A01082C50104967DCFD50118962D913C91F6
S11309B0199731832083FC01ED5FFE4F118300837F
S11309C00E946107F50130C08091100290911102DC
S11309D0989E3001999E700C1124C3018E5C9C4F2B
S11309E03C01DC0114968D919C911597892B09F497
S11309F0BECE5301B4E0AB0EB11CC5010E94510739
S1130A00009789F0FC01ED5FFE4F11830083209174
S1130A10180230911902FC01EC5EFE4F31832083F1
S1130A200E946107EACFF3011582148213821282B5
S1130A309ECE0F900F90DF91CF911F910F91FF9059
S1130A40EF90DF90CF90BF90AF909F907F906F908A
S1130A5008950F931F93909323038093220370931D
S1130A60200360931F0382E08093210350932B03A0
S1130A7040932A03309327032093260330932903BA
S1130A802093280310932503009324032091D40377
S1130A903091D5038091D6039091D703232B59F03D
S1130AA0F894FC01EE5EFE4F22E030E031832083B7
S1130AB00E94010107C0FC01EE5EFE4F118210820C
S1130AC00E9413031F910F910895E091D603F091B2
S1130AD0D703EB5FFE4F808191810895E091D403A9
S1130AE0F091D5032091D6033091D703EF2BA1F0D9
S1130AF0F8949093230380932203709320036093CC
S1130B001F0340932103F901EE5EFE4F82E090E063
S1130B10918380830C940101909323038093220397
S1130B207093200360931F0340932103F901EE5E49
S1130B30FE4F118210820C94130344E00E946E0550
S1130B40089543E00E946E0508951092D303109215
S1130B50D2031092D5031092D403E8EDF3E088E1B8
S1130B6091E0DF019C011D9221503040E1F7DF014B
S1130B70AD5FBE4F1D921C92E85EFE4F35E1E83535
S1130B80F30779F7E2E3F3E080E090E02AE0DF01A5
S1130B90322F1D923A95E9F7289FD001299FB00D75
S1130BA01124AE5CBC4F11961C921E9213821282C9
S1130BB019961C921E92189701963A9680319105C7
S1130BC031F7E091D603F091D703ED5FFE4F82E059
S1130BD090E09183808362E070E086E591E00E947A
S1130BE09D0561E070E08EE297E00C94A10541E080
S1130BF00E946E0508958091D4039091D503892BAA
S1130C0069F0F894E091D603F091D703EE5EFE4FBD
S1130C1084E090E0918380830C94010108951F92F5
S1130C200F920FB60F9211240BB60F922F933F938E
S1130C304F935F936F937F938F939F93AF93BF93E0
S1130C40EF93FF93F8948091000290910102019632
S1130C509093010280930002E091D603F091D703B0
S1130C60EE5EFE4F85E090E0918380830E94010157
S1130C70FF91EF91BF91AF919F918F917F916F9170
S1130C805F914F913F912F910F900BBE0F900FBE2C
S1130C900F901F9018958091D4039091D503892BC0
S1130CA071F0F894E091D603F091D703EE5EFE4F15
S1130CB086E090E0918380830E94010106C00E9437
S1130CC04203909303028093020280910202909166
S1130CD0030208952091D4033091D503232BA9F066
S1130CE0F894E091D603F091D703EE5EFE4F27E02F
S1130CF030E031832083909311028093100270932B
S1130D001902609318020C94010108952091D403F0
S1130D103091D503232BA9F0F894E091D603F091F8
S1130D20D703EE5EFE4F28E030E0318320839093BA
S1130D3011028093100210921902109218020E945C
S1130D400101E091D603F091D703EC5EFE4F808160
S1130D50918108952091D4033091D503232BA9F0D8
S1130D60F894E091D603F091D703EE5EFE4F29E0AC
S1130D7030E03183208390931102809310027093AA
S1130D801902609318020C94010108950895279A9A
S1130D9015B80895269A15B80895259A15B8089592
S1130DA095B121E030E0082E01C0220F0A94EAF741
S1130DB0922795B9089595B121E030E0082E01C03D
S1130DC0220F0A94EAF7922B95B9089515B808955D
S1130DD086E090E00E94D0060E94FB05F9CF0E94B5
S1130DE0C7060E94CA060C94CD06C0E0D0E008EE07
S1130DF013E0CE010196B8010E94FA07EC0180913C
S1130E00581590915915BE010E946A060E94FB056F
S1130E10F0CFC0E0D0E08091581590915915BE01F3
S1130E200E946A0680915815909159150E94860671
S1130E30EC018130910579F787E090E00E94D006BB
S1130E40EACF80915815909159150E948606019712
S1130E50C1F786E090E00E94D006F3CF0F931F9372
S1130E600E94EF060E944B069093591580935815E3
S1130E7000E010E021E030E04AE050E062E070E0A1
S1130E8088EE96E00E94290521E030E04AE050E037
S1130E9062E070E088EE96E00E9429051F910F91B0
S1130EA00895DC018D919C911197009749F0FC0104
S1130EB0EA5EFE4F208131812D933C931182108292
S1130EC00895BC01FC01E95FFE4F8081813061F02F
S1130ED08330A9F4FB01ED5FFE4F82E090E0918343
S1130EE080838CE092E009C0FB01ED5FFE4F82E05D
S1130EF090E09183808388E092E00C9457010895F8
S1130F008091D6039091D703FC01ED5FFE4F2081C1
S1130F1031812130310541F420915E1530915F1506
S1130F208217930709F061C080910C0290910D0221
S1130F30892B19F08CE092E03AC0809104029091E0
S1130F400502009761F12091000230910102FC0139
S1130F50E65FFE4F40815181241B350B37FD1FC0D6
S1130F60FC01EA5EFE4F80819181892B99F080918A
S1130F700002909101020190F081E02DE65FFE4FA6
S1130F8020813181821B930B97FD04C081E090E0A6
S1130F900E946D0280910402909105020FC080911D
S1130FA0080290910902892B29F088E092E00E94BE
S1130FB0510704C080915E1590915F159093D703FB
S1130FC08093D6038091D6039091D703FC01F395C7
S1130FD0208131813093611520936015FC01ED5F10
S1130FE0FE4F21E030E03183208308950E94A5055F
S1130FF00C94680397FB072E16F4009407D077FD32
S113100009D00E94140807FC05D03EF49095819500
S11310109F4F0895709561957F4F0895EE0FFF1FC0
S11310200590F491E02D1994AA1BBB1B51E107C054
S1131030AA1FBB1FA617B70710F0A61BB70B881F64
S1131040991F5A95A9F780959095BC01CD010895F3
S1071050F894FFCF3E
S9030000FC
